:020000040800F2
:1000000000000220C116000811170008111700088F
:100010001117000811170008111700080000000050
:1000200000000000000000000000000011170008A0
:100030001117000800000000111700081117000830
:1000400011170008111700081117000811170008F0
:1000500011170008111700081117000811170008E0
:1000600011170008111700081117000811170008D0
:1000700011170008111700081117000811170008C0
:1000800011170008111700081117000811170008B0
:1000900011170008111700081117000811170008A0
:1000A0001117000811170008111700081117000890
:1000B0001117000811170008111700081117000880
:1000C0001117000811170008111700081117000870
:1000D000111700081D090008111700081117000862
:1000E0001117000811170008111700081117000850
:1000F0001117000811170008111700081117000840
:10010000111700081117000811170008111700082F
:10011000111700081117000811170008111700081F
:10012000111700081117000811170008111700080F
:1001300011170008111700081117000811170008FF
:1001400011170008111700081117000811170008EF
:1001500011170008111700081117000811170008DF
:1001600011170008111700081117000811170008CF
:1001700011170008111700081117000800000000EF
:0C018000111700081117000811170008E3
:10018C0080B500AF074800F089FA074800F018F96D
:10019C00064800F014FB0649044800F0A1FB00F0EF
:1001AC004FF9FCE7940000200400002048000020D8
:1001BC002C17000880B500AF0249034800F090FBF3
:1001CC0000BF80BD441700084800002080B400AF79
:1001DC00074B1B69002B05DA054B064A5A60044B8A
:1001EC00054A5A6000BFBD465DF8047B704700BFEE
:1001FC00003C024023016745AB89EFCD80B400AFD2
:10020C00054B1B69044A43F00043136100BFBD4614
:10021C005DF8047B704700BF003C024080B582B0A3
:10022C0000AFFFF7D3FF0221202000F0C3FD0346EF
:10023C00FB71FB79092B03D0FFF7E0FF00231FE0D4
:10024C000221282000F0B6FD0346FB71FB79092B37
:10025C0003D0FFF7D3FF002312E00221302000F07F
:10026C00A9FD0346FB71FB79092B03D0FFF7C6FFF1
:10027C00002305E0FFF7C2FF034B044A1A60012379
:10028C0018460837BD4680BD00000020000001085C
:10029C0080B584B000AF78607B681B781A461B4B26
:1002AC001B6813441A4A934205D91A491A4800F09C
:1002BC0017FB002325E0FFF789FF0023FB7318E0F1
:1002CC00124B1868FB7B7A6813449B78194600F034
:1002DC00D1FD0346092B05D10C4B1B6801330B4A8E
:1002EC00136003E0FFF78AFF00230AE0FB7B013376
:1002FC00FB737B681B78FA7B9A42E1D3FFF77EFF96
:10030C00012318461037BD4680BD00BF00000020F9
:10031C0000060108681700084800002080B582B06C
:10032C0000AF78607B685A781E4B1A701D4B1B7897
:10033C00013B032B2CD801A252F823F059030008DF
:10034C005F0300087303000893030008FFF732FFF4
:10035C0024E0FFF763FF0346002B1ED0124913481D
:10036C0000F0BEFA19E07868FFF792FF0346002B05
:10037C0004D00F490D4800F0B3FA0FE00D490B48BB
:10038C0000F0AEFA0AE00C49084800F0A9FA05E0C2
:10039C000A49064800F0A4FA00E000BF00BF083785
:1003AC00BD4680BD68000020801700084800002072
:1003BC0098170008C0170008E41700080018000878
:1003CC0080B592B000AF786001214FF4800000F04E
:1003DC0061FF07F10C03184600F08CFC4FF480739E
:1003EC003B634023FB614FF00063FB600023BB6168
:1003FC007B687B6100233B640023FB624FF48063CA
:10040C007B620E4BDB6804333B6100237B6400236F
:10041C00BB6200233B627B681B6C07F10C0211462C
:10042C00184600F00FFC7B681B6C0121184600F08D
:10043C0098FC00BF4837BD4680BD00BF4800002077
:10044C0080B582B000AFF9E0834B1B78052B00F22E
:10045C00F58001A252F823F07D040008A3040008E3
:10046C00DF04000829050008610500080B060008D8
:10047C00FB78AA2B07D1784B01221A707749784860
:10048C0000F02EFADAE0744B00221A7075497448A9
:10049C0000F026FAD2E0FB78552B07D16E4B0222E6
:1004AC001A7071496E4800F01BFAC7E0FB78AA2B52
:1004BC0007D1694B01221A706C49694800F010FA97
:1004CC00BCE0654B00221A706449654800F008FADC
:1004DC00B4E0FA78664B1A70654B1B78202B0DD85C
:1004EC005D4B03221A7063495D4800F0F9F9604BCB
:1004FC001B7819465A4800F0D7F99CE05C4B1B78E6
:10050C00202B40F298805C4B00221A70524B002238
:10051C001A705A49524800F0E3F98CE0FA78544BBF
:10052C005A70534B1B78002B10D1514B1B781A4629
:10053C004F4B5B7813449AB24D4B5A84464B052271
:10054C001A704F49464800F0CBF977E0424B042231
:10055C001A7073E0484B1B785A1CD1B2464A117082
:10056C001946FA78424B0B449A70414B1A78424B1D
:10057C001B789A4238D1384B05221A7041493848B9
:10058C0000F0AEF94049364800F0AAF9384B002289
:10059C005A84374B5B781A46354B1B7813449AB206
:1005AC00334B5A8400237B600DE0314B5B8C30491C
:1005BC007A680A440232127813449AB22C4B5A8449
:1005CC007B6801337B602A4B1B781A467B6893420D
:1005DC00EBDB274B5B8CDBB21946214800F064F94E
:1005EC00254B00221A7028E0214B1A78224B1B78DD
:1005FC009A4222D925491A4800F072F91DE01C4B89
:10060C005B8CDAB2FB789A420DD12149144800F088
:10061C0067F91748FFF782FE0F4B00221A70164B32
:10062C0000221A700AE01B490D4800F059F90A4BD8
:10063C0000221A7002E000BF00E000BFFB1C19464C
:10064C00154800F095F80346002B7FF4FDAE00BF73
:10065C0000BF0837BD4680BD690000201018000897
:10066C0048000020341800085C18000874180008B2
:10067C006C0000208018000890000020A8180008CA
:10068C00D8180008F01800080819000828190008E4
:10069C0044190008581900089400002080B483B055
:1006AC0000AF78607B680022A3F880207B68002272
:1006BC00A3F8822000BF0C37BD465DF8047B704761
:1006CC0080B483B000AF78607B68B3F882309BB2A3
:1006DC00013303F07F037A68B2F8802092B2934220
:1006EC0001D1012300E0002318460C37BD465DF80C
:1006FC00047B704780B483B000AF78607B68B3F83C
:10070C0080309AB27B68B3F882309BB29A4201D1A6
:10071C00012300E0002318460C37BD465DF8047B2E
:10072C00704780B582B000AF78600B46FB7078687C
:10073C00FFF7C6FF0346002B01D0002314E07B68B3
:10074C00B3F882309BB219467B68FA785A547B68AE
:10075C00B3F882309BB201339BB203F07F039AB2A1
:10076C007B68A3F88220012318460837BD4680BD5C
:10077C0080B582B000AF786039607868FFF7BAFF57
:10078C000346002B01D0002315E07B68B3F88030C2
:10079C009BB21A467B689A5C3B681A707B68B3F80C
:1007AC0080309BB201339BB203F07F039AB27B681B
:1007BC00A3F88020012318460837BD4680BD80B5BC
:1007CC008AB000AF78607B681B680121184600F086
:1007DC0061FD7B685B680121184600F07BFD0223FC
:1007EC0087F82430002387F826307B681A697B68E9
:1007FC005B6913433B62012387F82730022387F898
:10080C0025307B689B6807F120021146184600F0E2
:10081C00BBFB7B6898687B681B8B0722194600F032
:10082C0042FC7B6898687B685B8B0722194600F05A
:10083C003AFC4FF4E1333B610023BB830C237B83F5
:10084C0000233B830023FB820023BB827B68DB6895
:10085C0007F110021146184600F05CFD7B68DB685E
:10086C000121184600F010FE7B68DB680122402154
:10087C00184600F03BFE25233B730123FB73012339
:10088C007B730123BB7307F10C03184600F078F956
:10089C007B68D8687B689B8B0122194600F04AFE66
:1008AC0000BF2837BD4680BD80B582B000AF7860F0
:1008BC000B46FB7000BF7B68DB688021184600F09C
:1008CC0081FE0346002BF6D07B68DB68FA7892B287
:1008DC001146184600F0F8FD00BF0837BD4680BD34
:1008EC0080B582B000AF7860396008E03B681B7857
:1008FC0019467868FFF7D8FF3B6801333B603B68CB
:10090C001B78002BF2D100BF00BF0837BD4680BD5D
:10091C0080B584B000AF3B4BDB683A4A928B1146F2
:10092C00184600F06BFE0346012B67D1364B1B8833
:10093C009BB23B60344B9B889BB23B603B68334B18
:10094C001B6C184600F029FA0346C3F140039AB217
:10095C002F4B1A802E4B1B889AB22E4B1B889BB2A6
:10096C009A4216D92B4B1B889BB2FB600AE0274A94
:10097C00FB6813441B7819462748FFF7D2FEFB6827
:10098C000133FB60224B1B889BB21A46FB689342D7
:10099C00EDDB1F4B1B889AB21E4B1B889BB29A42F5
:1009AC0027D21C4B1B889BB2BB600AE0174ABB6862
:1009BC0013441B7819461848FFF7B3FEBB68013384
:1009CC00BB60BB683F2BF1DD00237B600AE00F4A64
:1009DC007B6813441B7819460F48FFF7A2FE7B680F
:1009EC0001337B600A4B1B889BB21A467B6893428F
:1009FC00EDDB074B1B889AB2064B1A8000BF1037F1
:100A0C00BD4680BD480000200010014004000020BD
:100A1C001A010020180100209400002080B500AFBE
:100A2C00164BD3F88830154A43F47003C2F888305B
:100A3C00134B1B68124A43F001031360104B002246
:100A4C009A600F4B1B680E4A23F0847323F4803397
:100A5C0013600B4B0B4A5A60094B1B68084A23F472
:100A6C0080231360064B0022DA6000F00DF8034B74
:100A7C004FF000629A6000BF80BD00BF00ED00E047
:100A8C00003802401030002480B483B000AF002343
:100A9C007B6000233B60364B1B68354A43F4803344
:100AAC001360334B1B6803F400333B607B680133EA
:100ABC007B603B68002B03D17B68B3F5A04FF0D172
:100ACC002B4B1B6803F40033002B02D001233B603B
:100ADC0001E000233B603B68012B42D1244B1B6C93
:100AEC00234A43F080531364224B1B68214A43F47E
:100AFC00404313601E4B1E4A9B6893601C4B9B68C3
:100B0C001B4A43F400439360194B9B68184A43F407
:100B1C00A0539360164B184A5A60154B1B68144A25
:100B2C0043F08073136000BF114B1B6803F000731C
:100B3C00002BF9D0114B40F205721A600C4B9B68DC
:100B4C000B4A23F003039360094B9B68084A43F05C
:100B5C000203936000BF064B9B6803F00C03082B49
:100B6C00F9D100BF0C37BD465DF8047B704700BF60
:100B7C00003802400070004008544007003C02401E
:100B8C0080B485B000AF78600023FB730023BB7387
:100B9C000F237B737B68DB78002B39D0274BDB680A
:100BAC00DB431B0ADBB203F00703FB73FB7BC3F1D4
:100BBC000403BB737A7BFB7B42FA03F37B737B6886
:100BCC005B781A46BB7B02FA03F3FB737B689A785B
:100BDC007B7B1340DAB2FB7B1343FB73FB7B1B0168
:100BEC00FB73174A7B681B781344FA7B83F800234A
:100BFC007B681B7803F01F0311497A68127852093D
:100C0C00D2B21046012202FA03F341F820300FE071
:100C1C007B681B7803F01F0309497A681278520924
:100C2C00D2B2104601229A4000F1200341F8232051
:100C3C0000BF1437BD465DF8047B704700ED00E043
:100C4C0000E100E080B485B000AF7860396000232B
:100C5C00FB607B681B68FB60FA68254B1340FB60EC
:100C6C003B681A683B68DB681A433B685B691A434C
:100C7C003B689B691A433B68DB691A433B681B6AF8
:100C8C001A433B685B6A1A433B689B6A1A433B688E
:100C9C005B6B1A433B689B6B1343FA681343FB6013
:100CAC007B68FA681A607B685B69FB60FB6823F001
:100CBC000703FB603B68DA6A3B681B6B1343FA68FB
:100CCC001343FB607B68FA685A613B681A697B685E
:100CDC005A603B685A687B689A603B689A687B6884
:100CEC00DA6000BF1437BD465DF8047B704700BF67
:100CFC003F801CF080B483B000AF78607B6800222A
:100D0C001A607B6800225A607B6800229A607B68BC
:100D1C000022DA607B6800221A617B6800225A612B
:100D2C007B6800229A617B680022DA617B68002272
:100D3C001A627B6800225A627B6800229A627B6886
:100D4C000022DA627B6800221A637B6800225A63F5
:100D5C007B6800229A6300BF0C37BD465DF8047BAC
:100D6C00704780B483B000AF78600B46FB70FB78A3
:100D7C00002B06D07B681B6843F001027B681A606D
:100D8C0005E07B681B6823F001027B681A6000BFDA
:100D9C000C37BD465DF8047B704780B483B000AF60
:100DAC0078607B685B689BB218460C37BD465DF873
:100DBC00047B704780B584B000AF78600B46FB7045
:100DCC000023FB600923FB72FB78002B02D100236C
:100DDC00FB6010E0FB78012B03D14FF48073FB60B8
:100DEC0009E0FB78022B03D14FF40073FB6002E0A7
:100DFC004FF44073FB6000F0AFF80346FB72FB7AD4
:100E0C00092B2FD11A4B1B69194A23F44073136118
:100E1C00174B1A691649FB6813430B61144B1B697A
:100E2C00134A23F0F8031361114B1A697B681343BF
:100E3C000F4A43F0020313610D4B1B690C4A43F438
:100E4C008033136100F088F80346FB72084B1B6972
:100E5C00074A23F002031361054B1B69044A23F074
:100E6C00F8031361FB7A18461037BD4680BD00BFEE
:100E7C00003C024080B584B000AF78600B46FB703C
:100E8C000923FB7300F068F80346FB73FB7B092B0B
:100E9C001CD1114B1B69104A23F4407313610E4B88
:100EAC000D4A1B6913610C4B1B690B4A43F0010380
:100EBC0013617B68FA781A7000F04EF80346FB73E6
:100ECC00054B1B69044A23F001031361FB7B184695
:100EDC001037BD4680BD00BF003C024080B483B0DB
:100EEC0000AF0923FB711B4BDB6803F48033B3F5B4
:100EFC00803F02D10123FB7125E0164BDB6803F028
:100F0C001003002B02D00623FB711CE0114BDB6895
:100F1C0003F48073002B02D00223FB7113E00D4B02
:100F2C00DB6803F0E003002B02D00723FB710AE01F
:100F3C00084BDB6803F00203002B02D00823FB7183
:100F4C0001E00923FB71FB7918460C37BD465DF8AF
:100F5C00047B7047003C024080B582B000AF09238F
:100F6C00FB71FFF7BBFF0346FB7103E0FFF7B6FF16
:100F7C000346FB71FB79DBB2012BF7D0FB79DBB2BB
:100F8C0018460837BD4680BD80B487B000AF786086
:100F9C00396000237B6100233B610023FB6000234D
:100FAC007B6176E001227B6902FA03F33B613B68CB
:100FBC001B683A691340FB60FA683B699A4265D139
:100FCC007B681A687B695B00032101FA03F3DB433E
:100FDC001A407B681A607B681A683B681B79194653
:100FEC007B695B0001FA03F31A437B681A603B6868
:100FFC001B79012B03D03B681B79022B2ED17B680C
:10100C009A687B695B00032101FA03F3DB431A4006
:10101C007B689A607B689A683B685B7919467B6948
:10102C005B0001FA03F31A437B689A607B685A6889
:10103C007B699BB2194601238B40DB431A407B68CA
:10104C005A607B685B683A68927911467A6992B209
:10105C0001FA02F292B21A437B685A607B68DA6832
:10106C007B699BB25B00032101FA03F3DB431A405B
:10107C007B68DA607B68DA683B68DB7919467B69E8
:10108C005B0001FA03F31A437B68DA607B69013376
:10109C007B617B690F2B85D900BF00BF1C37BD4618
:1010AC005DF8047B704780B485B000AF78600B4668
:1010BC007B8013467B700023FB600023BB607A7837
:1010CC007B8803F007039B0002FA03F3FB607B8829
:1010DC00DB089BB21A467B68083253F822207B88C7
:1010EC0003F007039B000F2101FA03F3DB4379881C
:1010FC00C90889B2084602EA03017B6800F10802BC
:10110C0043F822107B88DB089BB21A467B680832B6
:10111C0053F82230FA681343BB607B88DB089BB220
:10112C001A467B680832B96843F8221000BF14379E
:10113C00BD465DF8047B704780B489B000AF786021
:10114C000023BB6100237B610023FB6102233B6115
:10115C000023FB600223BB604A4B9B6803F00C032B
:10116C00BB61BB69082B11D0BB69082B44D8BB6988
:10117C00002B03D0BB69042B04D03DE07B68424AB2
:10118C001A603DE07B68414A1A6039E03D4B5B6870
:10119C009B0D03F00103FB603A4B5B6803F03F03CC
:1011AC00BB60FB68002B0CD0384ABB68B2FBF3F376
:1011BC00344A52689209C2F3080202FB03F3FB6142
:1011CC000BE0314ABB68B2FBF3F32E4A526892092A
:1011DC00C2F3080202FB03F3FB612A4B5B681B0C96
:1011EC0003F0030301335B003B61FA693B69B2FB1B
:1011FC00F3F27B681A6003E07B68234A1A6000BF35
:10120C00204B9B6803F0F003BB61BB691B09BB61FE
:10121C001F4ABB6913441B78DBB27B617B681A687D
:10122C007B69DA407B685A60164B9B6803F4E05389
:10123C00BB61BB699B0ABB61154ABB6913441B7834
:10124C00DBB27B617B685A687B69DA407B689A60A9
:10125C000C4B9B6803F46043BB61BB695B0BBB61CC
:10126C000B4ABB6913441B78DBB27B617B685A6801
:10127C007B69DA407B68DA6000BF2437BD465DF8D5
:10128C00047B7047003802400024F40000127A00FE
:10129C006C19000880B483B000AF78600B46FB700B
:1012AC00FB78002B06D00A4B1A6B09497B68134359
:1012BC000B6306E0064B1A6B7B68DB430449134057
:1012CC000B6300BF0C37BD465DF8047B704700BF55
:1012DC000038024080B483B000AF78600B46FB70DE
:1012EC00FB78002B06D00A4B5A6C09497B681343D8
:1012FC004B6406E0064B5A6C7B68DB430449134095
:10130C004B6400BF0C37BD465DF8047B704700BFD3
:10131C000038024080B58AB000AF78603960002395
:10132C007B6200233B620023FB610023BB617B6873
:10133C001B8A9BB27B627B6A23F440537B623B68C3
:10134C00DB881A467B6A13437B627B6A9AB27B68A2
:10135C001A827B689B899BB27B627B6A23F4B053B5
:10136C0023F00C037B623B689A883B681B89134310
:10137C009AB23B685B8913439BB21A467B6A134350
:10138C007B627B6A9AB27B689A817B689B8A9BB2F0
:10139C007B627B6A23F440737B623B689B891A46B1
:1013AC007B6A13437B627B6A9AB27B689A8207F1F1
:1013BC0008031846FFF7C0FE7B68304A934203D0FF
:1013CC007B682F4A934202D17B693B6201E03B6907
:1013DC003B627B689B899BB21BB2002B0CDA3A6A8E
:1013EC0013469B0013449A001A443B681B685B002D
:1013FC00B2FBF3F3FB610BE03A6A13469B00134418
:10140C009A001A443B681B689B00B2FBF3F3FB6128
:10141C00FB691C4AA2FB03235B091B017B627B6AF1
:10142C001B09642202FB03F3FA69D31ABB617B68C4
:10143C009B899BB21BB2002B0CDABB69DB003233ED
:10144C00104AA2FB03235B0903F007037A6A1343D8
:10145C007B620BE0BB691B0132330A4AA2FB0323FC
:10146C005B0903F00F037A6A13437B627B6A9AB2BF
:10147C007B681A8100BF2837BD4680BD0010014033
:10148C00001401401F85EB5180B483B000AF78602D
:10149C000B46FB70FB78002B08D07B689B899BB2BA
:1014AC0043F400539AB27B689A8107E07B689B896E
:1014BC009BB223F400539AB27B689A8100BF0C371D
:1014CC00BD465DF8047B704780B483B000AF786094
:1014DC000B467B807B88C3F308039AB27B689A80A7
:1014EC0000BF0C37BD465DF8047B704780B483B0F9
:1014FC0000AF78600B467B8013467B707B78002BAB
:10150C0008D07B689B8A9AB27B8813439AB27B681B
:10151C009A8209E07B689B8A9AB27B88DB439BB2F8
:10152C0013409AB27B689A8200BF0C37BD465DF8B7
:10153C00047B704780B487B000AF78600B467B802B
:10154C0013467B7000233B610023FB600023BB60D0
:10155C0000237B617B687B617B88DBB25B09DBB240
:10156C003B617B8803F01F03FB600122FB6802FADE
:10157C0003F3BB603B69012B03D17B690C337B61AB
:10158C0009E03B69022B03D17B6910337B6102E0DC
:10159C007B6914337B617B78002B06D07B691968DF
:1015AC007B69BA680A431A6006E07B691968BB68F4
:1015BC00DA437B690A401A6000BF1C37BD465DF8F0
:1015CC00047B704780B485B000AF78600B467B809D
:1015DC000023FB737B681B889AB27B8813409BB2F9
:1015EC00002B02D00123FB7301E00023FB73FB7B78
:1015FC0018461437BD465DF8047B704780B487B03D
:10160C0000AF78600B467B800023FB6000237B617E
:10161C000023BB600023FB747B88DBB25B09DBB26D
:10162C00BB607B8803F01F037B6101227B6902FA9C
:10163C0003F37B61BB68012B07D17B689B899BB251
:10164C001A467B6913407B6111E0BB68022B07D102
:10165C007B681B8A9BB21A467B6913407B6106E050
:10166C007B689B8A9BB21A467B6913407B617B88A3
:10167C001B0A9BB2FB600122FB6802FA03F3FB60BE
:10168C007B681B889BB21A46FB681340FB607B6926
:10169C00002B05D0FB68002B02D00123FB7401E06A
:1016AC000023FB74FB7C18461C37BD465DF8047B9D
:1016BC00704700000D4885460D480E490E4A002320
:1016CC00C4188C4200D303E0D458C4500433F7E759
:1016DC000A4A0B4C0023A24200D302E013600432EE
:1016EC00F9E7FFF79BF9FEF74BFDFEE70000022040
:1016FC0000000020680000207C1900086800002011
:10170C001C010020FEE70000F8B500BFF8BC08BCC7
:10171C009E467047F8B500BFF8BC08BC9E467047A3
:10172C005072657061726520666F72207061636BB8
:10173C006574210D0A00000054686520426F6F74B7
:10174C006C6F616465722076657273696F6E206967
:10175C007320302E312E300D0A00000054686520A5
:10176C0064617461206973206F766572666C6F7743
:10177C00210D0A0045726173652041505020657837
:10178C006563757465640D0A000000005772697416
:10179C0065206461746120696E2041505020416461
:1017AC0064726573732073756363657373210D0ABB
:1017BC0000000000577269746520646174612069CF
:1017CC006E204150502041646472657373204661F1
:1017DC006C7365210D0A00004A554D502041505044
:1017EC0020636F6D6D616E642072656365697665EB
:1017FC00640D0A00556E6B6E6F776E20434D44215D
:10180C000D0A000046696E6420307841412C207727
:10181C00616974696E6720666F7220307835352E79
:10182C002E2E0D0A000000004E65656420612070AC
:10183C0061636B61676520776869636820686561BF
:10184C0064206973203078414135350D0A00000061
:10185C0046696E64206865616420737563636573A3
:10186C0073210D0A00000000446F75626C65200D39
:10187C000A000000496E707574206C656E677468A0
:10188C00207375636365737366756C2C207468655F
:10189C00206C656E2069730D0A0000005468652089
:1018AC0064617461206C656E677468206973207460
:1018BC006F6F206C6F6E67212044726F702074689C
:1018CC006973207061636B6167652100496E707587
:1018DC007420636D642073756363657373210D0AE3
:1018EC0000000000496E707574206461746120738F
:1018FC00756363657373210D0A00000054686520DD
:10190C0073756D206F662074686973207061636BEA
:10191C00616765206973200D0A00000057616974C6
:10192C00696E6720666F72206D6F726520646174DA
:10193C00612E2E2E0D0A0000436865636B73756D66
:10194C0020737563636573730D0A000043686563E8
:10195C006B73756D206572726F72210D0A00000039
:10196C000000000001020304010203040607080939
:10197C000000010800000000000000000000000052
:10198C00000000000000000000000000000000004B
:10199C00000000000000000000000000000000003B
:1019AC00000000000000000000000000000000002B
:1019BC000000000040640240010000001000000024
:1019CC000000024000100140000400000002000072
:0819DC000A00090024040000C8
:04000005080016C118
:00000001FF
